:060000000A128A1110280B
:10000800F000030EF1000A08F20072088A00710E6F
:100018008300F00E700E09008B01031383168C0108
:100028008D0160308F0081308100FF308500FF3006
:100038008600FF30870003178316003088000030E1
:100048008900031783128701880103138316003080
:100058009F0097010313831280309F000A128A11B0
:100068003528000000003828831203138601831600
:10007800F830860003172A308900831203134628B4
:1000880049284C28061506108610061406118610F5
:100098008614061106100330043EA0000000B53097
:0E00A800AF3A0000B530B53A00005A28A0006B
:04400E00F420FF3E5D
:00000001FF
