:060000000A128A11EA2F2A
:100686007E088A007F08820043230A128A118000AE
:10069600840A04087D0603190034FF0A0319FE0ABA
:1006A600472B543465346D3470343A3420347834FE
:1006B60078347834203467347234613464346F3477
:1006C60073340D340034FD01F91F702BF809F90954
:1006D600F80A0319F90AFD01FD0A7808F0007908FD
:1006E600F100F2018E30FB007B08F3007D08FC0070
:1006F6007C08F4000A128A112D247008F80071088B
:10070600F9007208FA000800F601F31F912BF209AE
:10071600F309F20A0319F30AF601F60AF11F982BF8
:10072600F009F109F00A0319F10A700871040319B6
:10073600C52BF501F50AF11BAC2B01300310F00DAA
:10074600F10DFF3E031DA12B0130F4007408F507DF
:100756009E2B71087302031DB22B70087202031CD4
:10076600BA2B7008F2027108031CF303F30201307E
:100776000310F10CF00CFF3E031DBB2B0130F502FC
:10078600031DAC2B76080319CD2BF209F309F20AE7
:100796000319F30A7308F1007208F00008008312C7
:1007A6000313A101F81FDE2BF709F809F70A03194D
:1007B600F80AA101A10AFA1FE92BF909FA09F90AAF
:1007C6000319FA0A0130FB007B08A106A201A30166
:1007D600770878040319202CA001A00AF81BFF2B28
:1007E60001300310F70DF80DFF3E031DF42B013009
:1007F600FB007B08A007F12B01300310A20DA30D0F
:10080600FF3E031D002C78087A02031D0C2C770886
:100816007902031C152C7708F9027808031CFA03E1
:10082600FA02221401300310F80CF70CFF3E031DE8
:10083600162C0130A002031DFF2B21080319282CBA
:10084600A209A309A20A0319A30A2308F800220889
:10085600F700080073080319352C72087104700438
:10086600031D482C0030F0000030F1000030F2008B
:1008760008000130F5007508F30701300310F20C8B
:10088600F10CF00CFF3E031D412CFE3072050319DE
:10089600632C3C2C0130F5007508F3070130F00796
:1008A600003003180130F107003003180130F20759
:1008B60001300310F20CF10CF00CFF3E031D5C2C12
:1008C600FF3072050319722C4D2C0130F3020130F2
:1008D6000310F00DF10DF20DFF3E031D6B2CF11B05
:1008E600782C023073020318682C7318802CFF30A2
:1008F600F0057F30F105FF30F2050310F30C7308A5
:10090600F500F601F70110300310F50DF60DF70DA1
:10091600FF3E031D872C7508F0047608F10477085E
:10092600F204740803190800F21708007008F400AE
:100936007108F5007208F6000310750D760DF700C4
:100946007708FD007D08031DB12C0030F300003050
:10095600F2000030F1000030F00008007008F400EA
:100966007108F5007208F60017300310F60CF50C46
:10097600F40CFF3E031DB82C7408F7007708F80046
:10098600F117FF30F005FF30F1050030F205700871
:10099600F9007108FA007208FB00FC018E30FD02B6
:1009A600FD1FF32C7D08803A8F3E0318E32C0030A0
:1009B600F3000030F2000030F1000030F0000800D3
:1009C60001300310FC0CFB0CFA0CF90CFF3E031D66
:1009D600E42C0130F4007408FD0703190E2DE32CF6
:1009E60018307D02031C0B2D0030F3000030F2009E
:1009F6000030F1000030F00008000130F400031070
:100A0600F90DFA0DFB0DFC0DF40B022D0130FD0264
:100A16007D08031D002D780803191C2DF909FA0914
:100A2600FB09FC09F90A0319FA0A0319FB0A031957
:100A3600FC0A7C08F3007B08F2007A08F1007908CA
:100A4600F0000800831203132D08B0002E08B10031
:100A56002F08B2000310310D320DB3003308B80071
:100A66003808031D3D2D0030AA000030AB000030D1
:100A7600AC0008002A08B0002B08B1002C08B20010
:100A86000310310D320DB3003308B9003908031DC8
:100A9600532D0030AA000030AB000030AC00080037
:100AA6000030B5000030B6000030B7008930390795
:100AB600B0003008B8022D08B0002E08B1002F088B
:100AC600B20010300310B20CB10CB00CFF3E031D87
:100AD600652D3008B3003308B9002A08B0002B088A
:100AE600B1002C08B20010300310B20CB10CB00CDF
:100AF600FF3E031D772D3008B3003308B90680305A
:100B0600B0003008B905AE17FF30AD05FF30AE05B1
:100B16000030AF05AB17FF30AA05FF30AB0500303C
:100B2600AC051830B0003008B40001300310B50D24
:100B3600B60DB70DFF3E031D992D2C082F02031D80
:100B4600AA2D2B082E02031DAA2D2A082D02031CEE
:100B5600B72D2A08AD022B08031C2B0FAE022C085A
:100B6600031C2C0AAF02351401300310AD0DAE0D77
:100B7600AF0DFF3E031DB82D0130B402031D982DA5
:100B86003508F0003608F1003708F2003808B000E2
:100B96003008F3003908B1003108F4000A128A114E
:100BA6002D24700883120313AA007108AB00720883
:100BB600AC000800780883120313A0007908A1008E
:100BC6007A08A2000310210D220DA3002308A40019
:100BD6002408031DF52D0030F8000030F900003020
:100BE600FA0008007B08A0007C08A1007D08A2008E
:100BF6000310210D220DA3002308A9002908031DB7
:100C06000B2E0030F8000030F9000030FA00080022
:100C160029087B3EA0002008A4077808A0007908D0
:100C2600A1007A08A20010300310A20CA10CA00C9F
:100C3600FF3E031D172E2008A3002308A9007B08EA
:100C4600A0007C08A1007D08A20010300310A20CB1
:100C5600A10CA00CFF3E031D292E2008A30023088B
:100C6600A9068030A0002008A905F917FC17FF3057
:100C7600FB05FF30FC050030FD050030A500003007
:100C8600A6000030A7000730A0002008A800781CA6
:100C96005A2E7B08A5077C08031103187C0A031D3E
:100CA600A6077D08031103187D0A031DA707013057
:100CB6000310FA0CF90CF80CFF3E031D5B2E0130F5
:100CC6000310FB0DFC0DFD0DFF3E031D632E0130D1
:100CD600A802031D4A2E0930A0002008A800781C8F
:100CE600822E7B08A5077C08031103187C0A031DC6
:100CF600A6077D08031103187D0A031DA707013007
:100D06000310FA0CF90CF80CFF3E031D832E01307C
:100D16000310A70CA60CA50CFF3E031D8B2E01305D
:100D2600A802031D722E2508F0002608F1002708E8
:100D3600F2002408A0002008F3002908A1002108D9
:100D4600F4000A128A112D247008F8007108F900BF
:100D56007208FA000800831203130713831603139D
:100D66001813981618121811831603178711831271
:100D7600031398170C3083160313990005140130DA
:100D8600831603178800831603139F171F129F12DB
:100D9600C330831203139F051F083F3940389F0055
:100DA6001F14133083120313BA00BA0BD82E831202
:100DB60003139F149F18DD2E1E08BA00BB013A08C4
:100DC600D7003B08D8005808BB005708BA003A08B5
:100DD600BB00BA01831603131E08831203133A07D6
:100DE600BC000030031801303B07BD003C08D700AB
:100DF6003D08D8005808F9005708F8000A128A1169
:100E060066230A128A11780883120313D40079081C
:100E1600D5007A08D600C030AA007F30AB00443037
:100E2600AC000030F800FA30F9004330FA005408FC
:100E3600FB005508FC005608FD000A128A11DD2544
:100E46000A128A11780883120313AD007908AE00DE
:100E56007A08AF000A128A1125250A128A1183120E
:100E660003132A08D4002B08D5002C08D6005408F2
:100E7600F0005508F1005608F2000A128A1199246A
:100E86000A128A11700883120313BA003A08D900AD
:100E96006430F7000030F8005908BA00BB013A0880
:100EA600F9003B08FA000A128A11D2230A128A11A3
:100EB6007708303E83120313BC003C08C8000A3092
:100EC600F7000030F8005908BA00BB013A08F200F2
:100ED6003B08F3006430F0000030F1000A128A117A
:100EE60087230A128A117108FA007008F9000A129B
:100EF6008A11D2230A128A117708303E831203130D
:100F0600BC003C08C9005908BA00BB013A08F20007
:100F16003B08F3006430F0000030F1000A128A1139
:100F260087230A128A11710883120313BF007008FF
:100F3600BE000A30F0000030F1003F08F3003E0822
:100F4600F2000A128A1187230A128A117008303EAB
:100F560083120313BA003A08CA00C001C10141084E
:100F6600803AFF0080307F02031DBB2F1130400204
:100F76000318DA2F83160313981CBD2F831203134D
:100F86004008423E84008313000899000130C007E0
:100F96000318C10A0030C1074108803AFF008030BB
:100FA6007F02031DD82F11304002031CBD2F0230D3
:100FB60083120313BC000430BB00B930BA00BA0B6D
:100FC600E22FBB0BE22FBC0BE22FE92FDA2E8313A5
:100FD6005430FD000330FE005430FF0042308400E0
:100FE6000A128A114723D401D501D601D701D801A7
:0A0FF600D90183010A128A11AE2E00
:04400E00F1FFFFFFC0
:00000001FF
