:060000000A128A11F82F1C
:100F5C0030348312031307138316031318139816D4
:100F6C00181218118316031787118312031398177D
:100F7C000C3083160313990083160313981CC22F8D
:100F8C0073088312031399000310071C0314031C2A
:100F9C00D32F831203130714D62F831203130710B6
:100FAC000130F0007008F3077B307302031CEA2F4A
:100FBC0083160313981CDE2F0D3083120313990034
:100FCC003030F0007008F3000230F2000430F10011
:100FDC00BA30F000F00BF02FF10BF02FF20BF02FDA
:100FEC000000C22F0A128A11AE27F30083010A12E5
:040FFC008A11AF2F78
:04400E00F1FFFFFFC0
:00000001FF
