:060000000A128A1110280B
:10000800F000030EF1000A08F20072088A00710E6F
:100018008300F00E700E09008B01031383168C0108
:100028008D0160308F0081308100FF308500FF3006
:100038008600FF30870003178316003088000030E1
:100048008900031783128701880103138316003080
:100058009F0097010313831280309F000A128A11B0
:100068003F28FA3003138312A0000B110B1D3A2806
:10007800A00B3928080003138316051003138312F5
:0A008800051035200514352042282C
:04400E00F420FF3E5D
:00000001FF
