:020000040000FA
:100000000A128A11E82F00308A000408840A820745
:1000100000343234303432343134003443346C34CC
:10002000613476346534203449346E3463346F344B
:10003000723472346534633474346134003443345C
:100040006C34613476346534203443346F34723424
:10005000723465346334743461340034503472342F
:100060006534733473342034613420344B34653454
:0400700079340034AB
:1009C600F030F0007008831603138605F030F0004F
:1009D600700886048113080001300A128A119225D4
:1009E6000A128A110830F400C930F300F30BF92C0F
:1009F600F40BF92CFE2C08003134323433344134F4
:100A06003434353436344234373438343934433474
:100A16002A343034233444347E088A007F08820026
:100A26000A128A110F250A128A118000840A040804
:100A36007D0603190034FF0A0319FE0A132DF4007C
:100A4600342D740884000A128A1103200A128A11AE
:100A56000A128A11C8250A128A110130F300730896
:100A6600F407740884000A128A1103200A128A11F4
:100A7600003A031D3F2D402D242D0800F8000230BA
:100A860078020318472D482D552D75080F398038E3
:100A9600F7007708F90079080A128A1192250A12D6
:100AA6008A11612D75080F39C038F7007708F900EB
:100AB60079080A128A1192250A128A1176080A12F0
:100AC6008A1122250A128A11080083160313880147
:100AD6002730F400F530F300F30B6F2DF40B6F2D78
:100AE60002300A128A1192250A128A1128300A1235
:100AF6008A1192250A128A1101300A128A11922548
:100B06000A128A110C300A128A1192250A128A11C7
:100B160006300A128A1192250A128A110800F2007A
:100B2600F0307205F0008312031308080F397004C1
:100B360088000810881400008312031388100330FD
:100B4600F1009730F000F00BA62DF10BA62DAB2D82
:100B56007208F00004300310F00DFF3E031DAE2DA9
:100B66008312031308080F397004880088140000E4
:100B76008312031388100830F100C930F000F00B1F
:100B8600C22DF10BC22DC72D0800F200F030720500
:100B9600F0008312031308080F3970048800081444
:100BA600881400008312031388100330F100973075
:100BB600F000F00BDC2DF10BDC2DE12D7208F000BE
:100BC60004300310F00DFF3E031DE42D83120313C2
:100BD60008080F3970048800881400008312031374
:100BE60088100830F100C930F000F00BF82DF10B39
:100BF600F82DFD2D0800F500332E750884008313AB
:100C060000080319072E082E182E700884000A12F1
:100C16008A1103200A128A11F3007508840000085D
:100C260073060319172E182E2B2E700884000A122D
:100C36008A1103200A128A11F3007508840000083D
:100C4600F40073087402F000F101031CF103432E53
:100C56000130F3007308F5070130F3007308F0075D
:100C66000130F1020030031CF203F202710A031D87
:100C7600402E720A031D402E412E002EF001F10176
:100C860008007130831603138F000A128A11682533
:100C96000A128A110A128A11E3240A128A11F5012C
:100CA6002630FA007A08F60000300A128A11412529
:100CB6000A128A11C0300A128A1192250A128A1162
:100CC6000A128A11E7260A128A11FA007A08FD002A
:100CD6007D0803196F2E702E842E7D080A128A1144
:100CE600C8250A128A117D08FA00831203134308E5
:100CF600443E84007A08831380000130FA007A08A3
:100D0600C3070230FC000430FB00BA30FA00FA0BCD
:100D16008A2EFB0B8A2EFC0B8A2E000005308312CE
:100D260003134302031C982E992E632E0130FA00FA
:100D36007A08F0000430F1000030F20044300A1264
:100D46008A11FE250A128A1170087104031DAC2E41
:100D5600AD2EBE2E0A128A11EF240A128A11F5014F
:100D66001730FA007A08F60000300A128A11412577
:100D76000A128A11CE2E0A128A11EF240A128A1139
:100D8600F5010630FA007A08F60000300A128A11D8
:100D960041250A128A111530FC004B30FB00BE308B
:100DA600FA00FA0BD42EFB0BD42EFC0BD42E00002B
:100DB6000A128A11EF240A128A1183120313C3013D
:100DC600522E0A128A110028203084003330F00097
:100DD6000408F1001030F200700884008313000844
:100DE600F300F00A7108840073088000F10AF20B20
:100DF600EF2E83120313B001B101B2018312031364
:100E060031083204031D082F092F362FFE308600C5
:100E16004230F000F00B0D2F0000152F2008F000D7
:100E26007008B00083120313061E1A2F1B2F112FF2
:100E3600202F2108F0007008B000861E232F242FD3
:100E46001C2F292F2208F0007008B000061F2C2F37
:100E56002D2F252F322F2308F0007008B000861F93
:100E6600352F362F2E2F31033204031D3B2F3C2FF7
:100E7600692FFD3086004230F000F00B402F000055
:100E8600482F2408F0007008B00083120313061ED2
:100E96004D2F4E2F442F532F2508F0007008B00019
:100EA600861E562F572F4F2F5C2F2608F0007008EE
:100EB600B000061F5F2F602F582F652F2708F00000
:100EC6007008B000861F682F692F612F0230310627
:100ED6003204031D6F2F702F9D2FFB30860042308A
:100EE600F000F00B742F00007C2F2808F00070082B
:100EF600B00083120313061E812F822F782F872FAF
:100F06002908F0007008B000861E8A2F8B2F832FC9
:100F1600902F2A08F0007008B000061F932F942F18
:100F26008C2F992F2B08F0007008B000861F9C2F7D
:100F36009D2F952F033031063204031DA32FA42FB6
:100F4600D12FF73086004230F000F00BA82F0000BA
:100F5600B02F2C08F0007008B00083120313061E91
:100F6600B52FB62FAC2FBB2F2D08F0007008B000A0
:100F7600861EBE2FBF2FB72FC42F2E08F000700875
:100F8600B000061FC72FC82FC02FCD2F2F08F00087
:100F96007008B000861FD02FD12FC92F0130B1079E
:100FA6000318B20A0030B2073208803AFF008030D8
:100FB6007F02031DE02F04303102031CE32FE42FD0
:100FC600012F831203133008080083134330FD00FA
:100FD6000430FE00FF30FF00333084000A128A110D
:100FE60013250A128A11C301C401C501C601C7012E
:0A0FF600C80183010A128A11442E7B
:04400E00D520FF3F7B
:00000001FF
