:060000000A128A11122809
:10000800FE00030E83120313A1000408A2000A08CD
:10001800A3007F08A4000A128A1120280A128A1154
:10002800152883120313AB01AC01AD01AE01AF017A
:1000380083010A128A111729831603130C1C0B2932
:10004800831203130C1C0B29D8308F00EF308E005D
:100058000130A0002008AD0764302D06031DFC28E0
:100068002F080319FC28AD010130AB070318AC0AAF
:100078000030AC0710302B060E3003192C06031D78
:10008800FC28AB01AC01FC283C30F0000030F1004A
:100098002C08F3002B08F2000A128A116C210A12AC
:1000A8008A11710883120313A6007008A5002E0890
:1000B800A00004300310A00DFF3E031D5E280A3087
:1000C800F0000030F1002608F3002508F2000A12BB
:1000D8008A116C210A128A117008831203132007EF
:1000E8008800AE01AE0A0A292E08A00004300310C9
:1000F800A00DFF3E031D7B280A30F8000030F900F0
:100108003C30F0000030F1002C08F3002B08F2001E
:100118000A128A116C210A128A117108FB007008F0
:10012800FA000A128A11A8210A128A117808831281
:100138000313200788000230C9282E08A0000430C5
:100148000310A00DFF3E031DA4280A30F000003064
:10015800F1002C08FB002B08FA003C30F8000030B6
:10016800F9000A128A11A8210A128A117908F300E3
:100178007808F2000A128A116C210A128A11700892
:1001880083120313200788000330A0002008AE0064
:100198000A292C08FB002B08FA003C30F800003034
:1001A800F9000A128A11A8210A128A117908831201
:1001B8000313A8007808A7002E08A0000430031035
:1001C800A00DFF3E031DE3280A30F8000030F900B7
:1001D8002808FB002708FA000A128A11A8210A1227
:1001E8008A1178088312031320078800AE010A29B0
:1001F8002E08003A03194828013A03197828033AC7
:100208000319A128013A0319CD280A290C108312D1
:100218002408FF0023088A0022088400210E830096
:10022800FE0E7E0E09008B13831203139010100824
:10023800CF3910389000D8308F00EF308E0010146E
:100248000C10831603130C140B178B178801051455
:100258008514831603178801831203130518572979
:10026800413083120313AA00ED30A900A90B3A29E3
:10027800AA0B3A293F29831203132F08031D462985
:10028800013047290030A9002908AF00051C4A2978
:10029800413083120313AA00ED30A900A90B52299B
:1002A800AA0B522957298312031385183029413084
:1002B80083120313AA00ED30A900A90B6129AA0B28
:1002C8006129662983120313AB01AC01AF01302900
:1002D800F501F601700871040319A329F701F70A5B
:1002E800F11B822901300310F00DF10DFF3E031DB3
:1002F80077290130F4007408F707742901300310D6
:10030800F50DF60DFF3E031D832971087302031DC9
:100318008F2970087202031C98297008F20271086C
:10032800031CF303F302751401300310F10CF00CF5
:10033800FF3E031D99290130F702031D8229760823
:10034800F1007508F0000800780879040319D52928
:10035800FD01FD0AF91BBC2901300310F80DF90D48
:10036800FF3E031DB1290130FC007C08FD07AE29C2
:1003780079087B02031DC22978087A02031CCA295E
:100388007808FA027908031CFB03FB02013003100A
:10039800F90CF80CFF3E031DCB290130FD02031DAB
:0C03A800BC297B08F9007A08F800080066
:04400E00F1FFFFFFC0
:00000001FF
