:060000000A128A11122809
:10000800FE00030EF1000408F2000A08F300831250
:1000180003137F08F4000A128A1141290A128A116F
:100028001528F601F70183010A128A111B28831685
:10003800031306108312031386018316031789011D
:100048008B138316031381128111073081043C300E
:100058008312031381008316031388018312031389
:1000680088018316031305168316031788010B11DD
:100078008B160B178B170A3083120313A00000305E
:10008800A1007708A800A9012808A2002908A30050
:100098000A128A11F4200A128A1183120313200803
:1000A800203E88001A3083120313A900F730A800F5
:1000B800A80B5C28A90B5C2861280A30831203135B
:1000C800A0000030A1007708A800A9012808A20014
:1000D8002908A3000A128A1199200A128A11831288
:1000E80003132008103E88001A3083120313A90056
:1000F800F730A800A80B7E28A90B7E288328831236
:100108000313051A3F28413083120313A900ED3069
:10011800A800A80B8D28A90B8D289228F7013C3040
:100128008312031381000B113F2883120313A501C7
:10013800A11FA528A009A109A00A0319A10AA501C0
:10014800A50AA31FB028A209A309A20A0319A30A92
:100158000130F5007508A506A601A70120082104AD
:100168000319E728A401A40AA11BC628013003101B
:10017800A00DA10DFF3E031DBB280130F500750839
:10018800A407B82801300310A60DA70DFF3E031DD4
:10019800C72821082302031DD32820082202031C94
:1001A800DC282008A2022108031CA303A3022614AA
:1001B80001300310A10CA00CFF3E031DDD28013007
:1001C800A402031DC62825080319EF28A609A709B4
:1001D800A60A0319A70A2708A1002608A0000800F4
:1001E80083120313A501A31F0029A209A309A20AC8
:1001F8000319A30AA501A50AA11F0729A009A10996
:10020800A00A0319A10A2008210403193429A4010A
:10021800A40AA11B1B2901300310A00DA10DFF3E4C
:10022800031D10290130F5007508A4070D292108C0
:100238002302031D212920082202031C2929200842
:10024800A2022108031CA303A30201300310A10C7E
:10025800A00CFF3E031D2A290130A402031D1B29FF
:10026800250803193C29A209A309A20A0319A30A0C
:100278002308A1002208A00008008B1A0B1D592989
:1002880086090130F0007008F60714307606031D61
:1002980056290130F0007008F70764307706031913
:1002A800F701F6013C3081000B117408FF00730858
:1002B8008A0072088400710E8300FE0E7E0E09000B
:04400E00F1FFFFFFC0
:00000001FF
