:060000000A128A11122809
:10000800FE00030E83120313A1000408A2000A08CD
:10001800A3007F08A4000A128A1120280A128A1154
:10002800152883120313AB01AC01AD01AE01AF017A
:1000380083010A128A111729831603130C1C0B2932
:10004800831203130C1C0B29D8308F00EF308E005D
:100058000130A0002008AD0764302D06031DFC28E0
:100068002F080319FC28AD010130AB070318AC0AAF
:100078000030AC0710302B060E3003192C06031D78
:10008800FC28AB01AC01FC283C30F0000030F1004A
:100098002C08F3002B08F2000A128A1169210A12AF
:1000A8008A11710883120313A6007008A5002E0890
:1000B800A00004300310A00DFF3E031D5E280A3087
:1000C800F0000030F1002608F3002508F2000A12BB
:1000D8008A1169210A128A117008831203132007F2
:1000E8008800AE01AE0A0A292E08A00004300310C9
:1000F800A00DFF3E031D7B280A30F8000030F900F0
:100108003C30F0000030F1002C08F3002B08F2001E
:100118000A128A1169210A128A117108FB007008F3
:10012800FA000A128A11A5210A128A117808831284
:100138000313200788000230C9282E08A0000430C5
:100148000310A00DFF3E031DA4280A30F000003064
:10015800F1002C08FB002B08FA003C30F8000030B6
:10016800F9000A128A11A5210A128A117908F300E6
:100178007808F2000A128A1169210A128A11700895
:1001880083120313200788000330A0002008AE0064
:100198000A292C08FB002B08FA003C30F800003034
:1001A800F9000A128A11A5210A128A117908831204
:1001B8000313A8007808A7002E08A0000430031035
:1001C800A00DFF3E031DE3280A30F8000030F900B7
:1001D8002808FB002708FA000A128A11A5210A122A
:1001E8008A1178088312031320078800AE010A29B0
:1001F8002E08003A03194828013A03197828033AC7
:100208000319A128013A0319CD280A290C108312D1
:100218002408FF0023088A0022088400210E830096
:10022800FE0E7E0E09008B13831203139010100824
:10023800CF3910389000D8308F00EF308E0010146E
:100248000C10831603130C140B178B178801051455
:10025800851483160317880183120313051855297B
:10026800823083120313AA00DD30A900A90B3A29B2
:10027800AA0B3A29831203132F08031D45290130BD
:1002880046290030A9002908AF00051C49298230F9
:1002980083120313AA00DD30A900A90B5129AA0B68
:1002A80051298312031385183029823083120313CE
:1002B800AA00DD30A900A90B5F29AA0B5F298312C8
:1002C8000313AB01AC01AF013029F501F601700849
:1002D80071040319A029F701F70AF11B7F290130DE
:1002E8000310F00DF10DFF3E031D74290130F400D9
:1002F8007408F707712901300310F50DF60DFF3E5C
:10030800031D802971087302031D8C29700872026D
:10031800031C95297008F2027108031CF303F30209
:10032800751401300310F10CF00CFF3E031D9629E3
:100338000130F702031D7F297608F1007508F000E7
:100348000800780879040319D229FD01FD0AF91B70
:10035800B92901300310F80DF90DFF3E031DAE2930
:100368000130FC007C08FD07AB2979087B02031DDE
:10037800BF2978087A02031CC7297808FA02790885
:10038800031CFB03FB0201300310F90CF80CFF3EC1
:10039800031DC8290130FD02031DB9297B08F90096
:0603A8007A08F8000800CD
:04400E00F1FFFFFFC0
:00000001FF
