:060000000A128A11FC2F18
:100B3000FD01F91FA22DF809F909F80A0319F90AAC
:100B4000FD01FD0A7808F0007908F100F2018E300D
:100B5000FB007B08F3007D08FC007C08F4000A120F
:100B60008A11B9257008F8007108F9007208FA00B6
:100B7000080073080319C12D720871047004031D65
:100B8000D42D0030F0000030F1000030F2000800F9
:100B90000130F5007508F30701300310F20CF10C79
:100BA000F00CFF3E031DCD2DFE3072050319EF2D15
:100BB000C82D0130F5007508F3070130F00700304B
:100BC00003180130F107003003180130F20701303B
:100BD0000310F20CF10CF00CFF3E031DE82DFF306A
:100BE00072050319FE2DD92D0130F30201300310D7
:100BF000F00DF10DF20DFF3E031DF72DF11B042E3C
:100C0000023073020318F42D73180C2EFF30F00518
:100C10007F30F105FF30F2050310F30C7308F50087
:100C2000F601F70110300310F50DF60DF70DFF3E3C
:100C3000031D132E7508F0047608F1047708F204FA
:100C4000740803190800F2170800F4308312031324
:100C5000C2000130C300831603130610831203136E
:100C600006104308F9004208F8000A128A11982574
:100C70000A128A11780883120313A3007908A400CA
:100C80007A08A5000030A0007A30A1004430A2000C
:100C90000A128A1129270A128A11831203132008C3
:100CA000B0002108B1002208B2000A128A119B2666
:100CB0000A128A11831203133008BE003108BF00E4
:100CC0003208C0003308C10083120313061443081E
:100CD000F9004208F8000A128A1198250A128A11AE
:100CE000780883120313A3007908A4007A08A500EA
:100CF0000030A0007A30A1004430A2000A128A110C
:100D000029270A128A11831203132008B000210830
:100D1000B1002208B2000A128A119B260A128A1117
:100D2000831203133008BE003108BF003208C00030
:100D30003308C1002E2E831203133008B40031088B
:100D4000B5003208B6000310350D360DB700370870
:100D5000BD003D08031DB52E0030B3000030B200C9
:100D60000030B1000030B00008003008B400310895
:100D7000B5003208B60017300310B60CB50CB40C31
:100D8000FF3E031DBC2E3408B7003708B800B1176A
:100D9000FF30B005FF30B1050030B2053008B900B2
:100DA0003108BA003208BB00BC018E30BD02BD1F45
:100DB000F72E3D08803A8F3E0318E72E0030B3002F
:100DC0000030B2000030B1000030B0000800013047
:100DD0000310BC0CBB0CBA0CB90CFF3E031DE82E73
:100DE0000130B4003408BD070319122FE72E183064
:100DF0003D02031C0F2F0030B3000030B200003062
:100E0000B1000030B00008000130B4000310B90D8B
:100E1000BA0DBB0DBC0DB40B062F0130BD023D0851
:100E2000031D042F38080319202FB909BA09BB097B
:100E3000BC09B90A0319BA0A0319BB0A0319BC0A87
:100E40003C08B3003B08B2003A08B1003908B000D2
:100E50000800831203132008A6002108A700220817
:100E6000A8000310270D280DA9002908AA002A08A8
:100E7000031D412F0030A0000030A1000030A2006F
:100E800008002308A6002408A7002508A8000310CE
:100E9000270D280DA9002908AF002F08031D572F83
:100EA0000030A0000030A1000030A20008002F0890
:100EB0007B3EA6002608AA072008A6002108A70056
:100EC0002208A80010300310A80CA70CA60CFF3EA7
:100ED000031D632F2608A9002908AF002308A600D8
:100EE0002408A7002508A80010300310A80CA70CA0
:100EF000A60CFF3E031D752F2608A9002908AF0682
:100F00008030A6002608AF05A117A417FF30A3055F
:100F1000FF30A4050030A5050030AB000030AC0068
:100F20000030AD000730A6002608AE00201CA62F1A
:100F30002308AB07240803110318240A031DAC0778
:100F4000250803110318250A031DAD0701300310FE
:100F5000A20CA10CA00CFF3E031DA72F0130031013
:100F6000A30DA40DA50DFF3E031DAF2F0130AE0252
:100F7000031D962F0930A6002608AE00201CCE2F98
:100F80002308AB07240803110318240A031DAC0728
:100F9000250803110318250A031DAD0701300310AE
:100FA000A20CA10CA00CFF3E031DCF2F013003109B
:100FB000AD0CAC0CAB0CFF3E031DD72F0130AE02C5
:100FC000031DBE2F2B08F0002C08F1002D08F200A5
:100FD0002A08A6002608F3002F08A7002708F40017
:100FE0000A128A11B925700883120313A000710830
:100FF000A1007208A200080083010A128A11252E9E
:04400E00F1FFFFFFC0
:00000001FF
