:020000040000FA
:060000000A128A11FC2F18
:100F7000F401F501CA2F0330F3009730F200F20BB1
:100F8000BF2FF30BBF2FC42F0130F4070318F50A4E
:100F90000030F5077508803AF2007108803A720255
:100FA000031DD42F70087402031CD72FD82FBB2F1A
:100FB0000800F430F6000130F70083160313061022
:100FC0008312031306107708F1007608F0000A1266
:100FD0008A11B8270A128A1183120313061477089C
:100FE000F1007608F0000A128A11B8270A128A1155
:100FF000E02F0A128A11002883010A128A11D92FC0
:04400E00D520FF3F7B
:00000001FF
