:060000000A128A11FC2F18
:100F4200F301F4017408803AF2007108803A7202E7
:100F5200031DAD2F7008730203180800C730F2009A
:100F6200B22FF20BB12FB52FB62F0130F3070318B2
:100F7200F40A0030F407A32FF430F5000130F60034
:100F8200831603138601051085108312031386014D
:100F9200051085107608F1007508F0000A128A1112
:100FA200A1270A128A11E42F860103108316031364
:100FB200051C0314031CE12F831603130514E42FED
:100FC200831603130510831203130608013E8600DD
:100FD200103006060319D52F031083160313851C40
:100FE2000314031CF82F831603138514E42F8316AE
:0E0FF20003138510E42F83010A128A11BD2F0C
:04400E00F1FFFFFFC0
:00000001FF
