:060000000A128A11F32F21
:1007DC007808F0007908F100F2018E30FB007B08FC
:1007EC00F300F4010A128A11A6247008F8007108AB
:1007FC00F9007208FA000800F601F31F0C2CF2093C
:10080C00F309F20A0319F30AF601F60AF11F132C85
:10081C00F009F109F00A0319F10A700871040319BF
:10082C00402CF501F50AF11B272C01300310F00DBB
:10083C00F10DFF3E031D1C2C0130F4007408F5076C
:10084C00192C71087302031D2D2C70087202031CE5
:10085C00352C7008F2027108031CF303F30201300B
:10086C000310F10CF00CFF3E031D362C0130F50289
:10087C00031D272C76080319482CF209F309F20AF8
:10088C000319F30A7308F1007208F0000800F6016E
:10089C00F11F572CF009F109F00A0319F10AF601BE
:1008AC00F60AF31F622CF209F309F20A0319F30A90
:1008BC000130F4007408F606F701F80170087104B1
:1008CC000319992CF501F50AF11B782C0130031052
:1008DC00F00DF10DFF3E031D6D2C0130F40074087A
:1008EC00F5076A2C01300310F70DF80DFF3E031DC0
:1008FC00792C71087302031D852C70087202031C7D
:10090C008E2C7008F2027108031CF303F3027714A7
:10091C0001300310F10CF00CFF3E031D8F2C013045
:10092C00F502031D782C76080319A12CF709F80998
:10093C00F70A0319F80A7808F1007708F0000800A4
:10094C0073080319AE2C720871047004031DC12CBA
:10095C000030F0000030F1000030F20008000130EF
:10096C00F5007508F30701300310F20CF10CF00CD4
:10097C00FF3E031DBA2CFE3072050319DC2CB52C7E
:10098C000130F5007508F3070130F007003003184B
:10099C000130F107003003180130F2070130031069
:1009AC00F20CF10CF00CFF3E031DD52CFF30720540
:1009BC000319EB2CC62C0130F30201300310F00D9F
:1009CC00F10DF20DFF3E031DE42CF11BF12C023056
:1009DC0073020318E12C7318F92CFF30F0057F30EB
:1009EC00F105FF30F2050310F30C7308F500F60166
:1009FC00F70110300310F50DF60DF70DFF3E031D3A
:100A0C00002D7508F0047608F1047708F2047408D8
:100A1C0003190800F21708007008F4007108F500BB
:100A2C007208F6000310750D760DF7007708FD00BF
:100A3C007D08031D2A2D0030F3000030F200003039
:100A4C00F1000030F00008007008F4007108F500A7
:100A5C007208F60017300310F60CF50CF40CFF3E80
:100A6C00031D312D7408F7007708F800F117FF30DB
:100A7C00F005FF30F1050030F2057008F90071083F
:100A8C00FA007208FB00FC018E30FD02FD1F6C2D7C
:100A9C007D08803A8F3E03185C2D0030F300003047
:100AAC00F2000030F1000030F000080001300310BB
:100ABC00FC0CFB0CFA0CF90CFF3E031D5D2D0130F8
:100ACC00F4007408FD070319872D5C2D18307D0286
:100ADC00031C842D0030F3000030F2000030F100D4
:100AEC000030F00008000130F4000310F90DFA0D8D
:100AFC00FB0DFC0DF40B7B2D0130FD027D08031D5D
:100B0C00792D78080319952DF909FA09FB09FC09C7
:100B1C00F90A0319FA0A0319FB0A0319FC0A7C08DF
:100B2C00F3007B08F2007A08F1007908F000080065
:100B3C00831203132D08B0002E08B1002F08B20049
:100B4C000310310D320DB3003308B8003808031D03
:100B5C00B62D0030AA000030AB000030AC0008000D
:100B6C002A08B0002B08B1002C08B2000310310D7C
:100B7C00320DB3003308B9003908031DCC2D0030F9
:100B8C00AA000030AB000030AC0008000030B5000B
:100B9C000030B6000030B70089303907B00030089B
:100BAC00B8022D08B0002E08B1002F08B20010308A
:100BBC000310B20CB10CB00CFF3E031DDE2D30083F
:100BCC00B3003308B9002A08B0002B08B1002C0878
:100BDC00B20010300310B20CB10CB00CFF3E031D70
:100BEC00F02D3008B3003308B9068030B00030085F
:100BFC00B905AE17FF30AD05FF30AE050030AF05BF
:100C0C00AB17FF30AA05FF30AB050030AC05183030
:100C1C00B0003008B40001300310B50DB60DB70D9F
:100C2C00FF3E031D122E2C082F02031D232E2B0812
:100C3C002E02031D232E2A082D02031C302E2A08F7
:100C4C00AD022B08031C2B0FAE022C08031C2C0A24
:100C5C00AF02351401300310AD0DAE0DAF0DFF3EDC
:100C6C00031D312E0130B402031D112E3508F00086
:100C7C003608F1003708F2003808B0003008F300ED
:100C8C003908B1003108F4000A128A11A624700840
:100C9C0083120313AA007108AB007208AC000800A1
:100CAC007130831603138F008801051401308316ED
:100CBC0003178800831603139F171F129F12C3304C
:100CCC00831203139F051F083F3940389F001F14E0
:100CDC00133083120313BA00BA0B722E8312031350
:100CEC009F149F18772E1E08BA00BB013A08C1004A
:100CFC003B08C2004108BB00BA01831603131E084F
:100D0C00831203133A07BC000030031801303B0771
:100D1C00BD003C08C1003D08C2004208F900410872
:100D2C00F8000A128A11EE230A128A11780883122B
:100D3C000313BE007908BF007A08C000C030AA00B7
:100D4C007F30AB004430AC000030F800FA30F900D2
:100D5C004330FA003E08FB003F08FC004008FD0051
:100D6C000A128A1122270A128A1178088312031395
:100D7C00AD007908AE007A08AF000A128A119E25E0
:100D8C000A128A11831203132A08BE002B08BF0013
:100D9C002C08C0003E08F0003F08F1004008F200AB
:100DAC000A128A1112250A128A117008831203136F
:100DBC00BA003A08C3000A30F0000030F1004308D2
:100DCC00BA00BB013A08F2003B08F3000A128A1180
:100DDC0002240A128A117008103E83120313880031
:100DEC00823083120313BB00DD30BA00BA0BFC2E29
:100DFC00BB0BFC2E0A30F0000030F1008312031301
:100E0C004308BA00BB013A08F2003B08F3000A128F
:100E1C008A114D240A128A117008203E8312031382
:100E2C008800823083120313BB00DD30BA00BA0B8A
:100E3C001D2FBB0B1D2F742E780883120313A000DB
:100E4C007908A1007A08A2000310210D220DA3003D
:100E5C002308A4002408031D3A2F0030F8000030AA
:100E6C00F9000030FA0008007B08A0007C08A10003
:100E7C007D08A2000310210D220DA3002308A90058
:100E8C002908031D502F0030F8000030F900003005
:100E9C00FA00080029087B3EA0002008A407780867
:100EAC00A0007908A1007A08A20010300310A20C4F
:100EBC00A10CA00CFF3E031D5C2F2008A3002308EF
:100ECC00A9007B08A0007C08A1007D08A2001030BE
:100EDC000310A20CA10CA00CFF3E031D6E2F2008CA
:100EEC00A3002308A9068030A0002008A905F91743
:100EFC00FC17FF30FB05FF30FC050030FD05003012
:100F0C00A5000030A6000030A7000730A000200884
:100F1C00A800781C9F2F7B08A5077C0803110318D9
:100F2C007C0A031DA6077D08031103187D0A031D07
:100F3C00A70701300310FA0CF90CF80CFF3E031D47
:100F4C00A02F01300310FB0DFC0DFD0DFF3E031D0A
:100F5C00A82F0130A802031D8F2F0930A0002008F4
:100F6C00A800781CC72F7B08A5077C080311031861
:100F7C007C0A031DA6077D08031103187D0A031DB7
:100F8C00A70701300310FA0CF90CF80CFF3E031DF7
:100F9C00C82F01300310A70CA60CA50CFF3E031D97
:100FAC00D02F0130A802031DB72F2508F00026080A
:100FBC00F1002708F2002408A0002008F3002908FB
:100FCC00A1002108F4000A128A11A6247008F80066
:100FDC007108F9007208FA00080083120313BE01AD
:100FEC00BF01C001C101C201C301C40183010A12C6
:040FFC008A11562ED2
:04400E00D5E0FFFFFB
:00000001FF
