:020000040000FA
:060000000A128A110E280D
:10000800FE00030EF2000A08F3007F08F4000A124B
:100018008A1115280A128A11112883010A128A11D5
:1000280054288B1C182819284B2883120313861769
:10003800F501F601831203130808F0007007880021
:100048000808031D282829282B2801308800823019
:10005800F100DD30F000F00B2F28F10B2F283428A9
:100068000130F5070318F60A0030F6077608803ADB
:10007800FF0080307F02031D432808307502031CEF
:10008800462847281E288B108312031386137408EA
:10009800FF0073088A00720E8300FE0E7E0E0900B0
:1000A8008316031386138801013083120313880013
:1000B800831603130614831603178901D0308B00A7
:0E00C80083160313011767280A128A110E28E7
:04400E00F13FFF3F40
:00000001FF
