:060000000A128A11122809
:10000800FE00030EF2000408F3000A08F40083124D
:1000180003137F08F5000A128A1119280A128A1197
:10002800152883010A128A115D288B1C522886170D
:10003800F601F7017708803AFF0080307F02031D40
:1000480027280830760203184E288312031308085D
:10005800F000700788000808031D34280130880064
:100068008230F100DD30F000F00B3828F10B382831
:100078003D280130F6070318F70A0030F70777081C
:10008800803AFF0080307F02031D4C28083076023A
:10009800031C29288B108312031386137508FF008D
:1000A80074088A0073088400720E8300FE0E7E0EA8
:1000B8000900831603138613880101308312031382
:1000C8008800831603130614831603178901D0309A
:0A00D8008B00831603130117702834
:04400E00F1FFFFFFC0
:00000001FF
