:020000040000FA
:060000000A128A11FC2F18
:100F6600EF30831603138600831203130616F4303C
:100F7600F0000130F1000A128A11D7270A128A11ED
:100F86008312031306120630F8001330F700AD3053
:100F9600F600F60BCC2FF70BCC2FF80BCC2FD32F5C
:100FA600B72F0A128A110028F201F301F12FF4017A
:100FB600F5010130F4070318F50A0030F507003093
:100FC6007502A53003197402031CEA2FEB2FDC2FE0
:100FD6000130F2070318F30A0030F30771087302B1
:100FE600031DF72F70087202031CFA2FFB2FDA2F4E
:0A0FF600080083010A128A11B32FCC
:04400E00F13FFF3F40
:00000001FF
