:100000000A128A11F02F00308A000408840A82073D
:10001000003455346C3474347234613473346F3456
:100020006E34693463342034733465346E3473341D
:100030006F34723400347734693474346834203463
:100040005034493443343134363446343834373418
:10005000373441340034543469346D3465345F349A
:10006000743461346B3465346E343A34003464343F
:1000700069347334743461346E34633465343A34BF
:0200800000344A
:1001D200831603138610061586112030831203132B
:1001E2009000080000300A128A1118210A128A119E
:1001F20001300A128A1118210800F000701C05292A
:100202008312031308160829831203130812F01C21
:100212000C2988160D298812701D11290817122918
:100222000813F01D16298817080088130800F30028
:1002320083120313081173080A128A11FE200A128C
:100242008A118312031388151A30F200F830F10074
:10025200F10B2929F20B29290000831203138811BB
:100262000800831203138F018E0186141030F200EE
:10027200F20B39290000831203138610061D3F2951
:1002820010140619422910100F08F4000E08F3008A
:100292007408F1007308F0000800FD01F91F5829E5
:1002A200F809F909F80A0319F90AFD01FD0A7808A3
:1002B200F0007908F100F2018E30FB007B08F300B8
:1002C2007D08FC007C08F4000A128A118122700861
:1002D200F8007108F9007208FA000800FB00F90141
:1002E200FA0179087B0784000A128A1103200A1294
:1002F2008A11003A0319080079087B0784000A1260
:100302008A1103200A128A110A128A11ED220A1294
:100312008A110130F9070318FA0A0030FA07722924
:10032200F7007703031DB62974087F3EF5007508B0
:10033200FA007A08F50004300310F50CFF3E031DA5
:100342009D297508F6007608F8007A080F39F5003D
:100352007508F90078080A128A1118210A128A11FE
:1003620079080A128A111821080002307706031D43
:1003720008007408BF3EF5007508FA007A08F50017
:1003820004300310F50CFF3E031DC2297508F60068
:100392007608F8007A080F39F5007508F900780830
:1003A2000A128A1118210A128A1179080A128A116C
:1003B2001821080083120313A101FC1FE729FB097E
:1003C200FC09FB0A0319FC0AA101A10AFA1FEE2982
:1003D200F909FA09F90A0319FA0A79087A040319D8
:1003E2001B2AA001A00AFA1B022A01300310F90DF0
:1003F200FA0DFF3E031DF7290130FD007D08A0071D
:10040200F4297A087C02031D082A79087B02031C5E
:10041200102A7908FB027A08031CFC03FC02013053
:100422000310FA0CF90CFF3E031D112A0130A00241
:10043200031D022A21080319232AFB09FC09FB0ACE
:100442000319FC0A7C08FA007B08F9000800F6018F
:10045200F11F322AF009F109F00A0319F10AF60133
:10046200F60AF31F3D2AF209F309F20A0319F30A05
:100472000130F4007408F606F701F80170087104FF
:100482000319742AF501F50AF11B532A01300310EE
:10049200F00DF10DFF3E031D482A0130F4007408EF
:1004A200F507452A01300310F70DF80DFF3E031D35
:1004B200542A71087302031D602A70087202031C19
:1004C200692A7008F2027108031CF303F30277141D
:1004D20001300310F10CF00CFF3E031D6A2A0130BB
:1004E200F502031D532A760803197C2AF709F80935
:1004F200F70A0319F80A7808F1007708F0000800F3
:1005020073080319892A720871047004031D9C2A56
:100512000030F0000030F1000030F200080001303D
:10052200F5007508F30701300310F20CF10CF00C22
:10053200FF3E031D952AFE3072050319B72A902A41
:100542000130F5007508F3070130F0070030031899
:100552000130F107003003180130F20701300310B7
:10056200F20CF10CF00CFF3E031DB02AFF307205B5
:100572000319C62AA12A0130F30201300310F00D3B
:10058200F10DF20DFF3E031DBF2AF11BCC2A0230F2
:1005920073020318BC2A7318D42AFF30F0057F3087
:1005A200F105FF30F2050310F30C7308F500F601B4
:1005B200F70110300310F50DF60DF70DFF3E031D88
:1005C200DB2A7508F0047608F1047708F20474084F
:1005D20003190800F2170800F40074080F39F1003B
:1005E2007108F2007408F039F1007108F300831207
:1005F200031308157308F10004300310F10CFF3ED9
:10060200031DFE2A71080A128A11FE200A128A119B
:100612008312031388153330F5008230F600760812
:10062200803AFF0080307F02031D192B01307502D2
:1006320003182D2B0000FF30F5070318F60AFF30D0
:10064200F6077608803AFF0080307F02031D2B2BCD
:1006520001307502031C1B2B8312031388117208CD
:100662000A128A11FE200A128A11831203138815B4
:100672003330F7008230F8007808803AFF0080308B
:100682007F02031D462B0130770203185A2B00000C
:10069200FF30F7070318F80AFF30F8077808803AA6
:1006A200FF0080307F02031D582B01307702031CAC
:1006B200482B831203138811080000300A128A1192
:1006C200FE200A128A111C30F6004130F70077082A
:1006D200803AFF0080307F02031D712B01307602C9
:1006E2000318852B0000FF30F6070318F70AFF30C6
:1006F200F7077708803AFF0080307F02031D832BC3
:1007020001307602031C732B03300A128A1118215E
:100712000A128A112130F5007630F400F40B8F2B87
:10072200F50B8F2B000003300A128A1118210A12CE
:100732008A114830F5006C30F400F40B9E2BF50B57
:100742009E2B000003300A128A1118210A128A1104
:1007520002300A128A1118210A128A1102300A1270
:100762008A1118210A128A1108300A128A111821D4
:100772000A128A1100300A128A1118210A128A11E9
:100782000C300A128A1118210A128A1100300A1238
:100792008A1118210A128A1106300A128A111821A6
:1007A2000800831203134008C4004108C500420830
:1007B200C6000310450D460DC7004708CD004D0881
:1007C200031DEC2B0030C3000030C2000030C1001A
:1007D2000030C00008004008C4004108C5004208BB
:1007E200C60017300310C60CC50CC40CFF3E031D17
:1007F200F32B4408C7004708C800C117FF30C005E3
:10080200FF30C1050030C2054008C9004108CA00D6
:100812004208CB00CC018E30CD02CD1F2E2C4D08CC
:10082200803A8F3E03181E2C0030C3000030C200F5
:100832000030C1000030C000080001300310CC0CB1
:10084200CB0CCA0CC90CFF3E031D1F2C0130C40087
:100852004408CD070319492C1E2C18304D02031CE5
:10086200462C0030C3000030C2000030C10000300E
:10087200C00008000130C4000310C90DCA0DCB0D21
:10088200CC0DC40B3D2C0130CD024D08031D3B2C79
:1008920048080319572CC909CA09CB09CC09C90A46
:1008A2000319CA0A0319CB0A0319CC0A4C08C3005C
:1008B2004B08C2004A08C1004908C0000800831260
:1008C20003133308B6003408B7003508B800031024
:1008D200370D380DB9003908BE003E08031D782CCB
:1008E2000030B0000030B1000030B2000800300823
:1008F200B6003108B7003208B8000310370D380DC2
:10090200B9003908BF003F08031D8E2C0030B0002B
:100912000030B1000030B20008000030BB000030EF
:10092200BC000030BD0089303F07B6003608BE0269
:100932003308B6003408B7003508B8001030031089
:10094200B80CB70CB60CFF3E031DA02C3608B9003C
:100952003908BF003008B6003108B7003208B800C5
:1009620010300310B80CB70CB60CFF3E031DB22CAE
:100972003608B9003908BF068030B6003608BF0510
:10098200B417FF30B305FF30B4050030B505B11719
:10099200FF30B005FF30B1050030B2051830B600A7
:1009A2003608BA0001300310BB0DBC0DBD0DFF3E71
:1009B200031DD42C32083502031DE52C3108340204
:1009C200031DE52C30083302031CF22C3008B3025D
:1009D2003108031C310FB4023208031C320AB5027B
:1009E2003B1401300310B30DB40DB50DFF3E031DD2
:1009F200F32C0130BA02031DD32C3B08F0003C0853
:100A0200F1003D08F2003E08B6003608F3003F0848
:100A1200B7003708F4000A128A1181227008831283
:100A22000313B0007108B1007208B200080083120B
:100A320003132008A6002108A7002208A80003101B
:100A4200270D280DA9002908AA002A08031D302D08
:100A52000030A0000030A1000030A20008002308EE
:100A6200A6002408A7002508A8000310270D280DBA
:100A7200A9002908AF002F08031D462D0030A00051
:100A82000030A1000030A20008002F087B3EA60023
:100A92002608AA072008A6002108A7002208A80005
:100AA20010300310A80CA70CA60CFF3E031D522DFC
:100AB2002608A9002908AF002308A6002408A700D9
:100AC2002508A80010300310A80CA70CA60CFF3EA6
:100AD200031D642D2608A9002908AF068030A60050
:100AE2002608AF05A117A417FF30A305FF30A40500
:100AF2000030A5050030AB000030AC000030AD0086
:100B02000730A6002608AE00201C952D2308AB074F
:100B1200240803110318240A031DAC072508031136
:100B22000318250A031DAD0701300310A20CA10C06
:100B3200A00CFF3E031D962D01300310A30DA40D42
:100B4200A50DFF3E031D9E2D0130AE02031D852D16
:100B52000930A6002608AE00201CBD2D2308AB07D5
:100B6200240803110318240A031DAC0725080311E6
:100B72000318250A031DAD0701300310A20CA10CB6
:100B8200A00CFF3E031DBE2D01300310AD0CAC0CBA
:100B9200AB0CFF3E031DC62D0130AE02031DAD2D71
:100BA2002B08F0002C08F1002D08F2002A08A600FC
:100BB2002608F3002F08A7002708F4000A128A115A
:100BC2008122700883120313A0007108A100720829
:100BD200A2000800831603138801061486110A1264
:100BE2008A11E9200A128A110A128A115E230A1254
:100BF2008A11F401F40A01300A128A1191210A12AF
:100C02008A1101300A128A116F210A128A11F40123
:100C1200F40A02300A128A1191210A128A1113303F
:100C22000A128A116F210A128A11333083120313B6
:100C3200D000BB30CF00DF30CE00CE0B1E2ECF0B4C
:100C42001E2ED00B1E2E0A128A11F3200A128A11AE
:100C52000A128A1132210A128A11710883120313AD
:100C6200DC007008DB005C08F9005B08F8000A127F
:100C72008A114E210A128A11780883120313A300E3
:100C82007908A4007A08A500D330A000DE30A100C4
:100C92003C30A2000A128A1118250A128A11831204
:100CA20003132008B3002108B4002208B500003065
:100CB200B0000030B1004030B2000A128A11602444
:100CC2000A128A11831203133008C0003108C100CE
:100CD2003208C2000A128A11D2230A128A1183121E
:100CE20003134108D2004008D1005C08F9005B08F8
:100CF200F8000A128A114E210A128A117808831208
:100D02000313A3007908A4007A08A500CD30A0003F
:100D12004C30A1003F30A2000A128A1118250A1293
:100D22008A11831203132008C0002108C10022087F
:100D3200C2000A128A11D2230A128A1183120313E1
:100D42004108DC004008DB000A30F9000030FA00FC
:100D5200E830F0000330F1005C08F3005B08F200B9
:100D62000A128A1128220A128A117108FC007008DC
:100D7200FB000A128A11DB210A128A1179088312F6
:100D82000313CE004E08DA000A30F9000030FA00F0
:100D9200E830F0000330F1005C08F3005B08F20079
:100DA2000A128A1128220A128A117108FC0070089C
:100DB200FB000A128A11DB210A128A1179088312B6
:100DC2000313CE004E08D9000A30F9000030FA00B1
:100DD2006430F0000030F1005C08F3005B08F200C0
:100DE2000A128A1128220A128A117108FC0070085C
:100DF200FB000A128A11DB210A128A117908831276
:100E02000313CE004E08D8000A30F9000030FA0071
:100E12000A30F0000030F1005C08F3005B08F200D9
:100E22000A128A1128220A128A117108FC0070081B
:100E3200FB000A128A11DB210A128A117908831235
:100E42000313CE004E08D7000A30F9000030FA0032
:100E52005C08FC005B08FB000A128A11DB210A1203
:100E62008A11790883120313CE004E08D6000A3085
:100E7200F9000030FA006430F0000030F10052084E
:100E8200F3005108F2000A128A1128220A128A116A
:100E92007108FC007008FB000A128A11DB210A1299
:100EA2008A11790883120313CE004E08D5000A3046
:100EB200F9000030FA000A30F0000030F100520868
:100EC200F3005108F2000A128A1128220A128A112A
:100ED2007108FC007008FB000A128A11DB210A1259
:100EE2008A11790883120313CE004E08D4000A3007
:100EF200F9000030FA005208FC005108FB000A1207
:100F02008A11DB210A128A11790883120313CE0097
:100F12004E08D300F401F40A01300A128A11912119
:100F22000A128A1123300A128A116F210A128A11B7
:100F3200831203135A08303E0A128A11ED220A1252
:100F42008A11831203135908303E0A128A11ED22C4
:100F52000A128A11831203135808303E0A128A11A8
:100F6200ED220A128A11831203135708303E0A1225
:100F72008A11ED220A128A11831203135608303E97
:100F82000A128A11ED220A128A11F401F40A0230BD
:100F92000A128A1191210A128A112F300A128A1119
:100FA2006F210A128A11831203135508303E0A1266
:100FB2008A11ED220A128A11831203135408303E59
:100FC2000A128A11ED220A128A118312031353089C
:100FD200303E0A128A11ED220A128A11292ED101FB
:100FE200D201D301D401D501D601D701D801D9014B
:0E0FF200DA01DB01DC0183010A128A11EB2D0A
:04400E00E2EFFFFFDF
:00000001FF
